S00C00006D61696E2E7372656373
S11300000C94DC000C94F1000C94F1000C94F100BD
S11300100C94F1000C94F1000C94F1000C94F10098
S11300200C94F1000C94F1000C94F1000C94F10088
S11300300C94F1000C94F1000C94F1000C94F10078
S11300400C94F1000C94F1000C94F1000C94F10068
S11300500C94F1000C94F1000C94F1000C94F10058
S11300600C94F1000C94F1006E616E00696E6600F0
S113007000407A10F35A00A0724E18090010A5D45B
S1130080E80000E87648170000E40B54020000CAB8
S11300909A3B000000E1F5050000809698000000FE
S11300A040420F000000A08601000000102700005D
S11300B00000E803000000006400000000000A00E3
S11300C0000000000100000000002C76D888DC67E6
S11300D04F0823DFC1DFAE59E1B1B796E5E3E4533E
S11300E0C63AE651997696E8E6C28426EB898C9B5B
S11300F062ED407C6FFCEFBC9C9F40F2BAA56FA5FB
S1130100F490055A2AF75C936B6CF9676DC11BFC7C
S1130110E0E40D47FEF520E6B500D0ED902E030097
S1130120943577050080841E080000204E0A0000E4
S113013000C80C333333330F986E12831141EF8DA3
S11301402114893BE65516CFFEE6DB18D1844B38E3
S11301501BF77C1D901DA4BBE424203284725E2214
S11301608100C9F124ECA1E53D276364696E6F70D9
S1130170737578585B65666745464700616E006E27
S113018066696E69747900CDCCCC3D0AD7233C17DF
S1130190B7D13877CC2B329595E6241FB14F0A009E
S11301A00020410000C84200401C4620BCBE4CCA8E
S11301B01B0E5AAEC59D740011241FBECFEFD8E0AC
S11301C0DEBFCDBF11E0A0E0B1E0E6E8F8E102C097
S11301D005900D92AA30B107D9F70E941D010C9425
S11301E0410C0C940000E82F419A8DECE89F812D7E
S11301F01124869586958695A82FB0E0A050BF4F10
S11302009C919BB94098AFE1BEE41197F1F700C00F
S11302100000409A982F990F990F890F880FE81BB7
S1130220F0E0E050FF4F80818BB941988FE19EE46C
S11302300197F1F700C0000008958FEF8AB987B1E4
S1130240836087B988B1836088B930E020E04DECE1
S1130250419A249F812D1124982F969596959695D1
S1130260E92FF0E0E050FF4F80818BB94098EFE137
S1130270FEE43197F1F700C00000409A892F880FFF
S1130280880F890F880FE22FE81BF0E0E050FF4F42
S113029080818BB941988FE19EE40197F1F700C00A
S11302A00000343628F02C3328F42F5F30E0D0CF10
S11302B03F5FCECF30E020E0CBCFA5E1B0E0E3E676
S11302C0F1E00C94190A7C011B015A01DC01179618
S11302D01C921E92169713968C9181FF68C3FE019F
S11302E031964F01D70113969C91F10193FD8591AD
S11302F093FF81911F01882309F4EDC2853239F4FB
S113030093FD859193FF81911F01853239F4B701E3
S113031090E00E94980B65015601E4CF10E0512C47
S113032000E0003238F48B3209F190F48032F9F0B5
S1130330833209F107FD34C020ED280F2A3020F55F
S113034006FF1BC0BAE01B9F200D1124122F05C00D
S11303508D3279F0803371F70160F10193FD85915D
S113036093FF81911F018111DCCF1AC002600460E8
S1130370F4CF0860F2CF0061F0CFEAE05E9E200D7A
S11303801124522E0062E9CF8E3221F406FDA3C25D
S11303900064E3CF8C3611F40068DFCF8836E9F2CD
S11303A09BEB980F933008F073C00061805E06FFEA
S11303B016E00F73702E853609F071C0689476F8D4
S11303C077FE77C0812F1C3308F08BE344244394D9
S11303D0480E27E0D5014D915D916D917D916D01A0
S11303E04C875D876E877F87042DA4016C857D858E
S11303F08E859F850E94500A5C01B981BC87B0FF3D
S113040004C06DE2662EB3FF0BC05BE2652E71FC87
S113041007C0E72DE4706E2E72FE02C070E2672EF4
S11304200C850C7009F456C06110C4C2F3E000E0FE
S1130430F51598F483E0052D081B73FC07C0B7017C
S113044080E290E00E94980B0150C9F7662029F0E1
S1130450B701862D90E00E94980BFC8548E6A42EF7
S113046040E0B42EF3FD04C03CE6A32E30E0B32EEE
S1130470172D1071F5018491811122C0002309F414
S11304804BCFB70180E290E00E94980B0150F6CF69
S11304909BE9980F933008F041C10F7E88CF8636D0
S11304A019F4689477F88CCF112309F489CF11508B
S11304B087CF212F183010F027E017E0412C8ACF86
S11304C011118052B70190E00E94980B2FEFA21AED
S11304D0B20AD0CF77FE78C04A0CFC85F4FF04C082
S11304E08A81813309F44A9414140CF090C028E0F2
S11304F0241510F428E0422E85E090E077FE06C033
S1130500C501B7FE02C090E080E00196611001963B
S1130510112331F0212F30E02F5F3F4F820F931FC3
S11305205816190619F014F0052D081B872D89702B
S113053011F4011171C0662029F0B701862D90E0F5
S11305400E94980B73FC02C001116DC077FE98C025
S1130550B98AA88AB7FE02C0198A188A6888798875
S1130560A501441951095D8B4C8B412E512C6627F2
S11305707727641975097B8B6A8BA614B7040CF46E
S113058059C08C899D89861597050CF053C0F501D7
S1130590E619F709E80DF91D818191E0691A7108DE
S11305A0AA89BB896A167B060CF446C0B70190E0A1
S11305B00E94980BBFEF6B167B06F9F6B7018EE22B
S11305C090E00E94980BD9CF76FC96CFE12FF0E013
S11305D0EA15FB053CF03CEFA3163FEFB30614F01D
S11305E0689477F83296E80DF91D01C01150112373
S11305F019F082918033D1F377FE7ECF4424439463
S1130600410E1A151B0431F02CF01A1975CF44242D
S1130610439472CF10E070CFB70180E290E00E9463
S1130620980B015086CFB70180E390E00E94980BAD
S113063001508ACF80E3B1CF68897989615071090B
S113064040945094E889F9894E165F06A4F4461A3A
S1130650570A460E571EA414B50441F49A819633E2
S113066068F4953319F4FC85F4FF08C0B70190E0F1
S11306700E94980B03CF512C412CEBCF81E3F6CF92
S11306808A81813319F02C852F7E2C87B70190E065
S11306900E94980B1123A9F0B7018EE290E00E940A
S11306A0980B92E0692E610E12E0E12F1F5FE80DB6
S11306B0F92DF11D8081B70190E00E94980B611221
S11306C0F4CF85E690E074FE02C085E490E0B701C3
S11306D00E94980BB7FC06C0A114B104C1F43C8578
S11306E034FF15C0B194A194B1088DE2B70190E034
S11306F00E94980B80E35AE0A516B10454F4B701A4
S113070090E00E94980BB701C501C096B1CF8BE26F
S1130710EDCF8F5F4AE0A41AB108EDCF8336B9F06C
S1130720833709F43CC0833509F04FC0D501AD903F
S1130730BD906D01612F70E006FD02C06FEF7FEF89
S1130740C5010E94440B3C01102F10680DC06501C7
S113075062E0C60ED11CD5018C9189836624639412
S1130760712C5401102F1F7713FD04C05614170465
S113077009F020F5052D6114710409F47FCEF5010B
S113078017FD859117FF81915F01B70190E00E94E9
S1130790980B01110150B1E06B1A7108ECCFF5010F
S11307A0A190B1906F01612F70E006FD02C06FEF60
S11307B07FEFC5010E944F0B3C01D4CFB70180E20B
S11307C090E00E94980B5A94D1CF843619F0893660
S11307D009F070C007FF65C0F501619171918191C5
S11307E091916F010F7697FF08C090958095709551
S11307F061957F4F8F4F9F4F00682AE030E0A4013E
S11308000E94E00BA82EA818BA2C602E06FF0BC07D
S1130810E89460F8A11638F404FF04C002FD02C095
S11308200E7E602EB12E64FE9AC0FE01EA0DF11D0B
S11308308081803309F08CC0562D597E652E062D9B
S1130840087063FC9BC060FE95C01A2DB51410F4AB
S1130850150D1B1964FE98C0B70180E390E00E9457
S1130860980B62FE09C088E790E061FE02C088E54B
S113087090E0B7010E94980BA11608F491C0AA94C5
S1130880B12C6FEFA61AB60AA80CB91CD5018E912B
S11308905D01B70190E00E94980BA814B904B1F768
S11308A0EDCDD5016D917D916D01072E000C880B66
S11308B0990B98CF702EE89474F82AE030E08537CD
S11308C039F1B02FB97F7B2E8037A9F058F48835E1
S11308D0A9F08F36D9F0F701868197816596E2E118
S11308E00C94350A8837B9F774FE02C0689472F81C
S11308F020E130E00DC0689474F8F6CF04FF03C023
S1130900EB2FE6607E2E20E132E002C028E030E0EA
S113091077FE16C0D5014D915D916D917D916D016C
S11309204C875D876E877F87A4016C857D858E8566
S11309309F850E94E00BA82EA818072D0F7764CF7F
S1130940F501819191916F01AC0170E060E0E8CF15
S113095062FC02C0B39473CFB394B39470CF862D6A
S1130960867809F46CCFF6CFB70180E290E00E945C
S1130970980BB394B514C0F300E06CCF052D0B199C
S1130980B51408F467CFF8CF862D867809F474CFB0
S11309908BE261FE80E267FC8DE2B70190E06ACFF2
S11309A0B70180E390E00E94980B115065CF8FEF60
S11309B09FEF94CF24E000E0251508F049CD84E0B2
S11309C03ACDFC01CA01DB0120FD08C023FD05C0AE
S11309D022FF02C0B383A283918380830895CF92C0
S11309E0DF92EF92FF92CF93DF9300D000D0CDB788
S11309F0DEB76B017C0183E044FD10C084E046FD5A
S1130A000DC0D601F701AA0FBB1FEE1FFF1F1094E4
S1130A10D1F7CA0EDB1EEE1EFF1E81E0CC0CDD1CDE
S1130A20EE1CFF1C8150D1F7D701C601820F911D26
S1130A30A11DB11DBC01CD010F900F900F900F901F
S1130A40DF91CF91FF90EF90DF90CF9008950F93B7
S1130A501F93CF93DF938C01C8010E945A0BEC01C2
S1130A6097FD08C00E94280B892BB1F7B801CE016D
S1130A700E94C80BCE01DF91CF911F910F91089571
S1130A80B0E0A0E0E6E4F5E00C94200AB82ED92FFB
S1130A908B01942EA52EF22E0E945A0BFC0199274D
S1130AA0EB3221F08D9791F46894F7F80150110915
S1130AB031F480E0CDB7DEB7EBE00C943C0A8B2D2B
S1130AC09D2F0E945A0BFC0197FDF3CFCF2DCD7FB4
S1130AD08F2D807321F5E03311F5680181E0C81A88
S1130AE0D108A9F08B2D9D2F0E945A0BFC0197FD74
S1130AF00EC08F7D883579F4C2640250110939F033
S1130B008B2D9D2F0E945A0BFC0197FF08C0C12C0E
S1130B10D12C76011DC0F6FE2EC0C2608601C12C08
S1130B20D12C760120ED2E0F283040F1C4FD09C0F0
S1130B302A3020F1C6FF05C02F7D8FEE820F86304C
S1130B40E0F06B2D7D2FCF010E94C80BC1FFB1CF08
S1130B50C7FF08C0F094E094D094C094C11CD11C89
S1130B60E11CF11C2C2FB701A601892D9A2D0E949E
S1130B70E10481E09FCFC261D1CF27504C2FC70140
S1130B80B6010E94EF046B017C01C260015011099F
S1130B90F9F28B2D9D2F0E945A0BFC0197FFC2CFB7
S1130BA0D5CFA0E2B0E0E7EDF5E00C941E0A5C01BD
S1130BB06B017A01CE0101964C0180E2F40111929D
S1130BC08A95E9F7F5017380890150E040E0B0E0CF
S1130BD020E0A0E061E070E0F80173FC959173FE01
S1130BE09191892F8F01911107C010E000E0C80195
S1130BF0A096EDE00C943A0A9E3519F4411551057E
S1130C0031F1A4171506ECF49D3549F19D32C9F470
S1130C10222309F1E82FE695E695E695E80DF92DEE
S1130C20F11D982F97709B0101C0220F9A95EAF746
S1130C309081292B20838B1781F08B1730F48F5FE1
S1130C40E9CF2111E7CFB92FE5CF8150E3CFA1E060
S1130C504F5F5F4FC1CF21E0FBCF20E0F9CF2223CC
S1130C6019F08E8180628E83AA2361F0F4019E01C3
S1130C702F5D3F4F8081DF01319680958C93E21781
S1130C80F307C1F777247394C5010E945A0B97FDAB
S1130C9016C0E82FE695E695E695E80DF92DF11DC9
S1130CA0208130E0AC014770552702C03595279567
S1130CB04A95E2F720FD06C0B5010E94C80B7720D3
S1130CC061F093CFE114F10419F0F70181937F01EE
S1130CD0F1E0CF1AD108712CB9F6E114F10409F44A
S1130CE086CFF701108283CFAAE0B0E0EAE7F6E00E
S1130CF00C941E0A782EC92E8B015A010E945A0B9D
S1130D0089879A8789859A85992729852B3231F095
S1130D1050E8952E8D9719F0912C13C0912C015009
S1130D20110929F480E02A96EDE00C943A0A872D03
S1130D309C2D0E945A0B89879A8789859A8597FDED
S1130D40F1CF89859A850E94310B8936910509F482
S1130D50D8C08E36910509F4EAC019821A821B8222
S1130D601C82F12CE12C29852053D92C2A3008F03F
S1130D7003C16894D1F8892D887092FEDFC0811177
S1130D8003C0FFEFEF1AFF0A0150110951F0872D3C
S1130D909C2D0E945A0B89879A8729853A8537FFAB
S1130DA0CBC0D1FEBFCF89858F7D853409F053C078
S1130DB0480131E0831A910809F4B4CF872D9C2DA2
S1130DC00E945A0B89879A8789859A8597FDAACFAD
S1130DD09927A985AB3221F08D9771F46894D4F8E2
S1130DE04801B2E08B1A910809F49CCF872D9C2D01
S1130DF00E945A0B89879A8789859A85C0970A9792
S1130E0008F090CF10E000E0C801110FAA0BBB0B53
S1130E108D839E83AF83B8872985205340E2BC012C
S1130E20CD010E94EF048B0191E0891A910859F0D9
S1130E30872D9C2D0E945A0B89879A8789859A85CC
S1130E40C0970A9708F3D4FE03C0119501951109C0
S1130E50E00EF11E8401012B49F0A985BA85B7FD86
S1130E6005C0672D7C2DCD010E94C80B69817A8154
S1130E708B819C810E941E0969837A838B839C8366
S1130E8069817A818B819C81F7FE9FC0F194E19402
S1130E90F108EBE9F1E0FE83ED838D809E80B8E1FB
S1130EA08B1A910800E210E081C00150110981F011
S1130EB0872D9C2D0E945A0B7C0197FD09C00E942E
S1130EC0310BD81611F1672D7C2DC7010E94C80B78
S1130ED0A981BA81A258B14009F024CF80E090E002
S1130EE0A0E8BFE7BC01CD01D92CD7FC9058A114D0
S1130EF0B10429F0F501608371838283938381E0D7
S1130F0012CF2FE731E03A832983A981BA81119660
S1130F10BA83A983FD013197D490D110C6CFAF57BE
S1130F20B140E1F680E090E0A0ECBFE7DBCF8CE7D6
S1130F3091E09A838983E9CF9D2C15CF882319F0FA
S1130F4031E0E31AF10840E269817A818B819C8166
S1130F500E94EF0469837A838B839C8389819A81BD
S1130F60AB81BC8188399949A949B94108F40CCFAE
S1130F70F92DF660DF2E08CF2E3F09F012CF93FC37
S1130F8010CF6894D3F800CFED81FE81259135917F
S1130F90459154910E945B0969837A838B839C8376
S1130FA069817A818B819C81E01AF10AE016F1064D
S1130FB058F72D813E81245031093E832D831695A7
S1130FC007952815390591F790CFA3EBB1E0BE83BF
S1130FD0AD8363CFA6E0B0E0E0EFF7E00C941C0A29
S1130FE05C016D837E83842E552EDC0117961C9242
S1130FF01E921697912CD5011396FC90ED81FE81DB
S1131000F3FC8591F3FE8191182FFE83ED838823F1
S1131010F9F090E00E94280B892B21F0C5010E9471
S11310202705E9CF153251F4ED81FE81F3FC1591CA
S1131030F3FE1191FE83ED83153269F4C5010E941C
S11310405A0B97FDA6C01817B1F2B5010E94C80B40
S1131050892D90E0A2C000E01A3249F4ED81FE81AE
S1131060F3FC1591F3FE1191FE83ED8301E0D12C85
S1131070C12C20ED210F2A3068F101FF42C0C114B8
S1131080D10431F3183609F440C01C3609F449C0C0
S11310901123F1F2612F70E08AE691E00E94390B8E
S11310A0892BB1F2F12CE12C00FD06C0E82DF52DC1
S11310B0E190F1908E2E5F2E1E3609F03CC0D501D2
S11310C016964D915C9170E060E0202FC7010E945C
S11310D0E10491CF0260C601B0E0A0E089839A8365
S11310E0AB83BC8340E2B601CD010E94EF046B01E7
S11310F0ED81FE81F3FC1591F3FE1191FE83ED83E6
S1131100B8CFCC24CA94DC2CBDCFED81FE81F3FC96
S11311101591F3FE1191FE83ED83183609F0B8CFD3
S113112008600460ED81FE81F3FC1591F3FE1191DA
S1131130FE83ED83ADCF1336C1F401FD03C0CC248F
S1131140C394D12CC5010E945A0B97FD22C0E1140F
S1131150F10419F0F70181937F01B1E0CB1AD108B2
S113116089F700FD48CF939446CF1B35D1F42D81E8
S11311703E81A701B601C5010E94D1058D839E83DE
S1131180ED81FE81EF2B69F7F5018381807309F40A
S11311905FCF8FEF9FEF91105BCF2696EFE00C941B
S11311A0380AC5010E94270597FDF3CF1F3609F4BD
S11311B043C068F4193689F020F4183569F0143600
S11311C0C9F1A701B601C5010E9474060CC013370A
S11311D0E1F060F41037A9F70064202FA701B601ED
S11311E0C5010E9440058111BCCFCECF153711F146
S11311F0183791F3E6CFE114F10419F0F701619285
S11312007F01F1E0CF1AD10871F0C5010E945A0B99
S11312103C0197FD08C00E94280B892B61F3B5019E
S1131220C3010E94C80BE114F10409F49ACFD70159
S11312301C9297CF0062D1CF0061CFCFE89409C050
S113124097FB3EF490958095709561957F4F8F4FF5
S11312509F4F9923A9F0F92F96E9BB279395F6950B
S1131260879577956795B795F111F8CFFAF4BB0F89
S113127011F460FF1BC06F5F7F4F8F4F9F4F16C0ED
S1131280882311F096E911C0772321F09EE8872F77
S1131290762F05C0662371F096E8862F70E060E033
S11312A02AF09A95660F771F881FDAF7880F9695AC
S11312B0879597F908950E946E090C94DF090E949E
S11312C0D10938F00E94D80920F0952311F00C942C
S11312D0C8090C94CE0911240C94130A0E94F00935
S11312E070F3959FC1F3950F50E0551F629FF00175
S11312F0729FBB27F00DB11D639FAA27F00DB11D8E
S1131300AA1F649F6627B00DA11D661F829F222716
S1131310B00DA11D621F739FB00DA11D621F839F9D
S1131320A00D611D221F749F3327A00D611D231F73
S1131330849F600D211D822F762F6A2F11249F57C1
S113134050409AF0F1F088234AF0EE0FFF1FBB1FC4
S1131350661F771F881F91505040A9F79E3F510583
S113136080F00C94C8090C94130A5F3FE4F3983E90
S1131370D4F3869577956795B795F795E7959F5F2D
S1131380C1F7FE2B880F911D9695879597F90895BF
S113139097F99F6780E870E060E008959FEF80EC24
S11313A0089500240A9416161706180609060895C7
S11313B000240A9412161306140605060895092E2D
S11313C00394000C11F4882352F0BB0F40F4BF2B9C
S11313D011F460FF04C06F5F7F4F8F4F9F4F0895DC
S11313E057FD9058440F551F59F05F3F71F04795D2
S11313F0880F97FB991F61F09F3F79F087950895B7
S1131400121613061406551FF2CF4695F1DF08C0D5
S1131410161617061806991FF1CF869571056105F2
S113142008940895E894BB2766277727CB0197F99A
S113143008952F923F924F925F926F927F928F9274
S11314409F92AF92BF92CF92DF92EF92FF920F934F
S11314501F93CF93DF93CDB7DEB7CA1BDB0B0FB659
S1131460F894DEBF0FBECDBF09942A883988488816
S11314705F846E847D848C849B84AA84B984C884AC
S1131480DF80EE80FD800C811B81AA81B981CE0FA3
S1131490D11D0FB6F894DEBF0FBECDBFED01089588
S11314A0283008F027E03327DA01990F311D87FD32
S11314B0916000966105710539F432602E5F3D93A9
S11314C030E32A95E1F708959F3F30F080387105A5
S11314D0610509F03C5F3C5F3D93913008F0806802
S11314E0911DDF93CF931F930F93FF92EF92192FC8
S11314F0987F9695E92F96959695E90FFF27E653E1
S1131500FF4F99273327EE24FF24A701E701059015
S11315100894079428F4360FE71EF81E491F511D3E
S1131520660F771F881F991F0694A1F705900794EB
S113153028F4E70EF81E491F561FC11D770F881F98
S1131540991F661F0694A1F70590079428F4F80ED6
S1131550491F561FC71FD11D880F991F661F771F6C
S11315600694A1F70590079420F4490F561FC71F4E
S1131570D81F990F661F771F881F0694A9F78491B7
S11315801095177041F0D695C79557954795F794E0
S1131590E7941A95C1F7E0E7F0E068941590159187
S11315A035916591959105907FE27395E118F10A63
S11315B0430B560BC90BD009C0F7E10CF11E431FB6
S11315C0561FC91FD01D7EF4703311F48A95E6CFDF
S11315D0E894015030F0080F0AF40027021708F4C9
S11315E0202F2395022F7A3328F079E37D932A95CF
S11315F0E9F710C07D932A9589F606949795679527
S1131600379517951794E118F10A430B560BC90B3C
S1131610D00998F023957E9173957A3308F070E39E
S11316207C932013B8F77E9170617D9330F083959D
S113163071E37D9370E32A95E1F71124EF90FF9015
S11316400F911F91CF91DF91992787FD9095089570
S113165091110C943E0C803219F089508550C8F7D2
S113166008959111089581548A5108F4805E855A31
S11316700895FC010590061621F00020D9F7C00159
S113168008953197CF010895FC0105906150704091
S11316900110D8F7809590958E0F9F1F0895FC0137
S11316A06150704001900110D8F7809590958E0F8D
S11316B09F1F0895CF93DF93EC018B8180FF33C08C
S11316C086FF0CC08F7B8B838E819F8101969F83C5
S11316D08E838A8190E0DF91CF91089582FF15C0B7
S11316E0E881F9819081292F092E000C330B806247
S11316F09923C1F03196F983E8838E819F81019605
S11317009F838E83C9019927E6CFEA85FB85CE01A5
S113171009959C0197FFF1CF8B812F3F3F4F31F00B
S113172090E2892B8B838FEF9FEFD5CF90E1F9CF98
S11317300F931F93CF93DF93182F092FEB018B8106
S113174081FD09C01FEF0FEF812F902FDF91CF9103
S11317501F910F91089582FF14C02E813F818C81C7
S11317609D81281739073CF4E881F981CF0101965E
S11317709983888310838E819F8101969F838E83B2
S1131780E3CFE885F985812F0995892BA1F3DACF79
S1131790FB01238120FF11C026FD0FC08F3F980756
S11317A071F082832F7D2064238326813781215029
S11317B0310937832683992708958FEF9FEF089582
S11317C0FA01AA27283051F1203181F1E8946F936E
S11317D06E7F6E5F7F4F8F4F9F4FAF4FB1E03ED014
S11317E0B4E03CD0670F781F891F9A1FA11D680FB2
S11317F0791F8A1F911DA11D6A0F711D811D911DE5
S1131800A11D20D009F468943F912AE0269F112459
S11318103019305D3193DEF6CF010895462F4770BD
S1131820405D4193B3E00FD0C9F7F6CF462F4F7018
S1131830405D4A3318F0495D31FD4052419302D076
S1131840A9F7EACFB4E0A69597958795779567951C
S1131850BA95C9F700976105710508959B01AC011C
S11318600A2E06945795479537952795BA95C9F743
S1131870620F731F841F951FA01D08959927882741
S10918800895F894FFCF67
S10D1886C0F9A4B0999282F8809092
S9030000FC
